:100000000C9467000C948F000C948F000C948F005C
:100010000C948F000C948F000C94820B0C948F0026
:100020000C948F000C948F000C948F000C948F0014
:100030000C948F000C948F000C948F000C948F0004
:100040000C94DB030C948F000C9409030C94E302D2
:100050000C948F000C948F000C948F000C948F00E4
:100060000C948F000C948F00710871087108B0080F
:100070009708AA0871087108B008970800000000E6
:10008000240027002A0000000000250028002B0083
:10009000040404040404040402020202020203032E
:1000A0000303030301020408102040800102040836
:1000B00010200102040810200000000800020100C6
:1000C000000304070000000000000000EB0D1124F5
:1000D0001FBECFEFD8E0DEBFCDBF11E0A0E0B1E0A2
:1000E000E6EAF3E202C005900D92A838B107D9F70D
:1000F00022E0A8E8B1E001C01D92A53BB207E1F7FC
:1001000010E0C7E6D0E004C02197FE010E94B611BE
:10011000C636D107C9F70E94CC0C0C94D1110C94AF
:1001200000001D9A0895259A2D9A0895E091B10135
:10013000F091B2018081811103C08FEF9FEF0CC05D
:10014000E091B101F091B2010580F681E02D0680C9
:10015000F781E02D828193819093930180939201A6
:100160000895E1EBF0E02491EDE9F0E0849188233B
:1001700099F090E0880F991FFC01E458FF4FA5917A
:10018000B491FC01EA57FF4F859194918FB7F89491
:10019000EC91E22BEC938FBF81E00E943B030E9425
:1001A000230F80E00E943B030E94230FF5CFF894B9
:1001B0000E9493002FEF81EE94E021508040904008
:1001C000E1F700C000000E9491002FEF87EA91E65E
:1001D000215080409040E1F700C000000E94910053
:1001E0002FEF81EE94E0215080409040E1F700C075
:1001F00000000E9491002FEF81EE94E0215080409A
:100200009040E1F700C000000E949100D3CF88E148
:1002100091E00E9484030E94960387E391E00E948C
:1002200084030E942504BC0180E090E04AE00E9423
:100230009A030E94960384E491E00E9484036091F3
:10024000F60170E080E090E04AE00E949A030E948C
:1002500096030E9496030E94960381E591E00E9416
:1002600084038091F4019091F501009711F40E94AC
:10027000D70049960E9484030E94960389E591E085
:100280000E948403E091F401F091F5010788F08D5C
:10029000E02D80E090E0DC012191253A21F40196E7
:1002A000A11DB11DF9CFBC01CD01882799274AE0D6
:1002B0000E949A030E9496030E9496030E9496034E
:1002C0000E94230FA4CF80918801882309F10FB6E3
:1002D000F8940F92E091C101F091C201C681D781DB
:1002E000CE0102960E94850B8091F6018150809389
:1002F000F601809188018150809388010F900FBE94
:100300008F89988D0E941207CE010E941207DBCFC1
:100310008091CE01823010F00E94A90B0E94D7027A
:10032000D2CF0F931F93E7EFF1E0A089B18982E06C
:100330008C93A485B5851C92A685B7858FEC8C938C
:10034000108EA489B58986E08C93A289B3898C919B
:1003500080618C93A289B3898C9188608C93A289E7
:10036000B3898C9180688C930288F389E02D808119
:100370008F7D808300E010E022E040E850E06AE6F4
:1003800071E081EB90E00E94360F21E040E850E000
:1003900060E771E087E091E00E94360F1F910F91B6
:1003A0000895CF92DF92EF92FF920F931F93CF9316
:1003B000DF936C017A018B01C0E0D0E0CE15DF0540
:1003C00081F0D8016D918D01D601ED91FC910190E4
:1003D000F081E02DC6010995892B11F02196EECF11
:1003E0007E01C701DF91CF911F910F91FF90EF9098
:1003F000DF90CF900895089580E090E00895FC018B
:10040000538D448D252F30E0842F90E0821B930B79
:10041000541710F0CF96089501970895FC01918D1F
:10042000828D981761F0828DDF01A80FB11D5D9656
:100430008C91928D9F5F9F73928F90E008958FEFC4
:100440009FEF0895FC01918D828D981731F0828D78
:10045000E80FF11D858D90E008958FEF9FEF0895CF
:10046000FC01918D228D892F90E0805C9F4F821B33
:1004700091098F739927089587EF91E00E943002C8
:1004800021E0892B09F420E0822F0895FC01848D5E
:10049000DF01A80FB11DA35ABF4F2C91848D90E0AE
:1004A00001968F739927848FA689B7892C93A08989
:1004B000B1898C91837080648C93938D848D981313
:1004C00006C00288F389E02D80818F7D80830895A6
:1004D000EF92FF920F931F93CF93DF93EC0181E094
:1004E000888F9B8D8C8D981305C0E889F989808150
:1004F00085FD26C0F62E0B8D10E00F5F1F4F0F738A
:100500001127E02E8C8DE8120CC00FB607FCFACF35
:10051000E889F989808185FFF5CFCE010E944602E6
:10052000F1CF8B8DFE01E80FF11DE35AFF4FF082F2
:100530009FB7F8940B8FEA89FB89808180620AC09B
:100540009FB7F894EE89FF896083E889F9898081F3
:100550008370806480839FBF81E090E0DF91CF91C2
:100560001F910F91FF90EF900895CF93DF93EC01CF
:10057000888D8823C9F0EA89FB89808185FD05C0C3
:10058000A889B9898C9186FD0FC00FB607FCF5CFFD
:10059000808185FFF2CFA889B9898C9185FFEDCF45
:1005A000CE010E944602E7CFDF91CF91089580E00F
:1005B00090E0892B29F00E943C0281110C940000EC
:1005C00008950E94BC111F920F920FB60F92112432
:1005D0002F933F934F935F936F937F938F939F934B
:1005E000AF93BF93EF93FF9387EF91E00E94460292
:1005F000FF91EF91BF91AF919F918F917F916F91FB
:100600005F914F913F912F910F900FBE0F901F90D0
:1006100018951F920F920FB60F9211242F938F935C
:100620009F93EF93FF93E0910702F091080280817E
:10063000E0910D02F0910E0282FD12C09081809136
:1006400010028F5F8F7320911102821751F0E09199
:100650001002F0E0E950FE4F958F8093100201C028
:100660008081FF91EF919F918F912F910F900FBEFD
:100670000F901F901895E5ECF0E09491E1EBF0E01D
:100680002491EDE9F0E0E491EE2309F43CC09923D4
:1006900039F1933091F038F49130A9F0923001F5AE
:1006A00094B59F7D12C0973091F09830A1F09430AE
:1006B000B9F4909180009F7D03C0909180009F7756
:1006C000909380000DC094B59F7794BD09C0909120
:1006D000B0009F7703C09091B0009F7D9093B000D1
:1006E000F0E0EE0FFF1FEA57FF4FA591B4919FB7BF
:1006F000F894811104C08C912095282302C0EC91BC
:100700002E2B2C939FBF0895009769F0FC01019058
:100710000020E9F73197AF01481B590BBC0187EF67
:1007200091E00C94D10180E090E0089584E891E09C
:100730000C9484038F929F92AF92BF920F931F935A
:10074000CF93DF93CDB7DEB7A1970FB6F894DEBF96
:100750000FBECDBF19A2423008F44AE08E010F5DF2
:100760001F4F842E912CA12CB12CA50194010E9425
:100770009411E62FB901CA0101501109EA3014F4AD
:10078000E05D01C0E95CD801EC93232B242B252BE1
:1007900061F7C8010E948403A1960FB6F894DEBFEA
:1007A0000FBECDBFDF91CF911F910F91BF90AF9042
:1007B0009F908F9008951F920F920FB60F92112461
:1007C0002F933F938F939F93AF93BF9380919A0200
:1007D00090919B02A0919C02B0919D023091990250
:1007E00023E0230F2D3720F40196A11DB11D05C074
:1007F00026E8230F0296A11DB11D20939902809334
:100800009A0290939B02A0939C02B0939D028091C8
:10081000950290919602A0919702B091980201964C
:10082000A11DB11D8093950290939602A09397020B
:10083000B0939802BF91AF919F918F913F912F916B
:100840000F900FBE0F901F9018950FB6F8940F924F
:100850008091AC019091AD010F900FBE0895FC0105
:1008600073836283918780874617570778F0421B0E
:10087000530B8485958548175907C8F4BF016E5FEF
:100880007F4F80918E0190918F010DC042175307C9
:1008900018F46217730758F4BF016E5F7F4F8091A1
:1008A0009001909191010E94940C80E0089581E064
:1008B0000895CF93DF939C01FB01DC011196CD914C
:1008C000DC911297D383C2838C819D81958384832D
:1008D0008C819D81DC0113967C936E9312977D83AE
:1008E0006C8331872087F90180818F5F8083DF915E
:1008F000CF910895FC010396928381832FEF3FEF00
:100900003483238396838583908787831082089519
:10091000EF92FF920F931F93CF93DF93E09190019B
:10092000F09191018081882381F10580F681E02D8D
:1009300000811181C681D7817E0182E0E80EF11C21
:10094000C7010E94850BE889F989CE0109958A893A
:1009500082FFE4CF8C859D85800F911F08171907B2
:1009600060F49B838A83D987C887B70180919001FF
:10097000909191010E94940CD1CFB801CE010E94B8
:1009800046108111CBCF0E94D70080918E019091AB
:100990008F019093910180939001F0938F01E093E8
:1009A0008E01DF91CF911F910F91FF90EF900895ED
:1009B000FF920F931F93CF93DF93EC01F62E0091DC
:1009C000AC011091AD018091F4019091F501029676
:1009D0000E94850BCF3F8FEFD80789F4FF2079F075
:1009E0006091F4017091F5016E5F7F4F83EB91E0B0
:1009F000DF91CF911F910F91FF900C945904C00F7C
:100A0000D11FE091F401F091F501D383C28360918D
:100A1000F4017091F501C017D10768F48091AF011E
:100A20009091B0016E5F7F4FDF91CF911F910F9139
:100A3000FF900C94940C8091B1019091B2016E5F83
:100A40007F4F0E94940C8091920190919301C8175E
:100A5000D90720F4D0939301C0939201DF91CF91F5
:100A60001F910F91FF9008958091F301882331F039
:100A700080919402882321F080E0089581E0089518
:100A800082E00895FC01DB01892B11F40E94D7005C
:100A90001097E1F30FB6F8940F922091AC013091CA
:100AA000AD018D919C9111978F3F4FEF940701F10C
:100AB000418152816091AE017081761719F024173F
:100AC0003507C0F4241B350B2817390770F4821B37
:100AD000930B8D939C938091AE0180838091AC01A8
:100AE0009091AD019283818303C01D921C9202C03C
:100AF00080E001C081E00F900FBE08950F931F9317
:100B0000CF93DF93DC011596ED91FC911697C6818A
:100B1000D781209711F40E94D7008E01045F1F4FE8
:100B2000C8010E94850B80919402811114C00A5063
:100B30001109C8010E94850B8E899091F2019817C6
:100B400010F48093F201B9E08B9FC0011124B80129
:100B500082539E4F03C0B80185EC91E00E94590476
:100B6000E091F401F091F5019E898689891720F4BE
:100B700081E080938D0101C080E0DF91CF911F91D2
:100B80000F910895CF93DF93EB01009711F40E942A
:100B9000D7006091F4017091F501645F7F4F0E946E
:100BA000940C61E0CE01DF91CF910C94D8047F9238
:100BB0008F929F92AF92BF92CF92DF92EF92FF926D
:100BC0000F931F93CF93DF9380919402811102C002
:100BD0000E94D7000FB6F8940F9280919402815032
:100BE0008093940280919402882311F080E004C1E4
:100BF0008091F6018823D1F3C0E0D0E029E0F22E05
:100C0000EE24E3948091C501882351F1E091CA015B
:100C1000F091CB01C681D781CE010C960E94850B45
:100C20008E010E5F1F4FC8010E94850B8E89909127
:100C3000F201981710F48093F201F89EC00111247C
:100C4000B80182539E4F0E945904E091F401F09143
:100C5000F5019E8986899817A8F2E0928D01D2CF7E
:100C6000CD2B11F00E949600E0908B01F0908C014A
:100C7000E114F10409F4B8C089E0A82E7724739434
:100C8000CC24CA94DC2C80919402811197C0C0912D
:100C9000AC01D091AD012196D093AD01C093AC01D0
:100CA0002097F1F4E091B101F091B20180818111BE
:100CB0008FCF8091B1019091B2012091AF0130911D
:100CC000B0013093B2012093B1019093B0018093B1
:100CD000AF018091AE018F5F8093AE010E949600BC
:100CE0008091920190919301B12CC817D90708F413
:100CF00051C0E091B101F091B2018081811105C034
:100D0000D0929301C092920145C0E091B101F0915F
:100D1000B2010580F681E02D06811781D801129677
:100D20008D919C911397C817D90728F4909393013C
:100D3000809392012FC04801B2E08B0E911CC40138
:100D40000E94850BF80184899589892B21F0C801BF
:100D50000C960E94850BD80156968C919091F201C9
:100D6000981710F48093F201A89EC0011124B401D9
:100D700082539E4F0E945904E091F401F091F501D5
:100D8000D80156969C918689981708F4B2CFBB2457
:100D9000B394AFCFE091F401F091F501E689AE9EF6
:100DA000F0011124E253FE4F8081823010F0BB2409
:100DB000B39480918D0181110CC00AC080918B0188
:100DC00090918C01019690938C0180938B0103C0CC
:100DD000B11070928D01B1E0EB1AF10809F053CF18
:100DE00010928C0110928B0180918D01882309F45F
:100DF000FDCE0E94A90B81E00F900FBEDF91CF9135
:100E00001F910F91FF90EF90DF90CF90BF90AF9028
:100E10009F908F907F900895809194028F5F809330
:100E200094020895CF93DF93009751F0EC010E9454
:100E30000C07CE010E940B11DF91CF910C94D705C6
:100E4000DF91CF910895CF93DF93EC010E940C07BF
:100E5000CE010E947310EC010E94D705209771F417
:100E60000E9493002FEF80E792E021508040904055
:100E7000E1F700C000000E949100F4CFCE01DF91A5
:100E8000CF910895CF93DF93CDB7DEB72A970FB6F2
:100E9000F894DEBF0FBECDBFE0919001F0919101BB
:100EA000F080FF2031F00580F681E02D0081118176
:100EB00002C000E010E00E940C070E9425046C01B3
:100EC0008091890190918A01C816D90620F40E9468
:100ED000880481E001C080E0D0928A01C09289013B
:100EE00081117DC0FF20C1F1C016D106E8F10E943A
:100EF000D705E0919001F09191010580F681E02DF8
:100F0000E680F780C70102960E94850BD7015296B2
:100F10008C91529782FF15C01C966D917C911D9704
:100F2000600F711F9801A601C7010E942F0488233A
:100F300059F0B801C7010E944610811105C00E94F6
:100F4000D7008E7FF701828BD7015096ED91FC91EF
:100F50005197C701099589C0E0918E01F0918F01E9
:100F60008081BB24B3948111B12CE090AA01F09050
:100F7000AB010FB6F8940F92F701858D8F3F09F4FE
:100F8000158ED7015E968C915E978F3F11F45E9619
:100F90001C920F900FBEF701828D811116C0C70100
:100FA000419669F26091F4017091F501645F7F4FA1
:100FB0000E945904B11004C0C8018C199D0902C0D7
:100FC0008FEF9FEF6B2D0E94D804C7010E94400B4A
:100FD0000E94D705811149C00E94A90B46C00E94FA
:100FE000D70543C00E943405882309F449C080E036
:100FF0006801B1E1CB0ED11C0FB6F8940F92F80145
:10100000F28CFF2009F4B1C0448D41113FC0FA9425
:10101000F801F28E8085811153C00F900FBEF980C8
:10102000F7FC23C00C811D81D8011A968D919C91EB
:101030001B97892B21F0C80102960E94850B0E9404
:1010400025046C018091890190918A01C816D90606
:1010500010F40E948804D0928A01C0928901EF2D79
:10106000FF0CFF0BEA30F105A8F10091AA011091E5
:10107000AB011A8619860115110509F0B3CF5FCFB0
:1010800089859A85892B09F05ACFB1CF50E08681A6
:101090009781840F951F97838683248135818217DA
:1010A000930720F08081918197838683D8011696DB
:1010B0006D917C911797CE0101960E94C111A7CF27
:1010C000C80108960E947E05882309F4A6CF0E94D5
:1010D000A90BA3CFEC5CFF4FD80152968C910C94D6
:1010E000B6118160F801828BEA80FB80648575858A
:1010F0006E0D7F1D9701A601C8010E942F04882351
:1011000009F4B3CFD8015096ED91FC915197C801E5
:101110000995F801828982FFA8CF648575856E0DD7
:101120007F1DC8010E94461081119FCF08CF8160AA
:10113000F801828B6A817B817587648761157105EF
:1011400009F4FDCE6C0D7D1D9601A601C8010E941B
:101150002F048BCF81FD04C0C8010E94120785CFE8
:101160008E7FD80152968C9380CF29853A85232B88
:1011700019F40F900FBE90CE811109C08091AE017D
:101180008E838091AC019091AD0198878F830F90F1
:101190000FBE0E940C070FB6F8940F92D8015D960F
:1011A0008C915D978F3F11F45D961C92F801868DAE
:1011B0008F3F09F4168E0F900FBEBE01675F7F4F01
:1011C000CE0106960E94420581111CC0C8010E94F2
:1011D000350B882389F069857A85C6010E94C2058E
:1011E000C8010E94400B0E94D705882311F081E0BE
:1011F00003CF0E94A90BFBCFC8010E94400B0E94A5
:10120000D705F5CFC8010E94400B0E94D705C80141
:101210000E94350B882359F33FCE0F920FB6F894F6
:101220000F921F9211242F923F924F925F926F92D2
:101230007F928F929F92AF92BF92CF92DF92EF9266
:10124000FF920F931F932F933F934F935F936F934F
:101250007F938F939F93AF93BF93CF93DF93EF933E
:10126000FF93A091F401B091F5010DB60D920EB669
:101270000D9213BE8091940281112BC18091AC011B
:101280009091AD0101969093AD018093AC010097D0
:1012900009F066C0E091B101F091B20120812223F2
:1012A00061F1F894259A2D9A2FEF61EE74E02150A8
:1012B00060407040E1F700C000001D9A8FEF97EA90
:1012C000A1E681509040A040E1F700C000001D9AC7
:1012D000BFEFC1EED4E0B150C040D040E1F700C054
:1012E00000001D9A2FEF61EE74E0215060407040C5
:1012F000E1F700C000001D9AD7CF2091B1013091D5
:10130000B2014091AF015091B0015093B2014093AE
:10131000B1013093B0012093AF012091AE012F5F56
:101320002093AE01E091B101F091B2012081211131
:1013300007C02FEF3FEF309393012093920110C02D
:10134000E091B101F091B2010580F681E02D0680B7
:10135000F781E02D22813381309393012093920114
:1013600020919201309193018217930708F49CC059
:1013700020E019E0E091B101F091B201308131112A
:1013800007C08FEF9FEF90939301809392018DC0E0
:10139000E091B101F091B2010580F681E02D068067
:1013A000F781E02D428153818417950728F45093EB
:1013B00093014093920179C0AF014E5F5F4FA285C8
:1013C000B38564817581E680F780EB01FD82EC8254
:1013D000C681D7817B836A8311966D917C91129728
:1013E0004617570721F41296DC93CE931197138674
:1013F00012863C9131503C933C91A489B589109759
:10140000F9F066857785E088F188EB01FD82EC8252
:10141000C089D1897B836A831196ED90FC901297E5
:10142000BF01645F7F4FE616F70621F41296DC9346
:10143000CE931197158A148A3C9131503C933C917C
:10144000A6893091F2013A1710F4A093F2011A9F85
:10145000D0011124BD0162537E4F7B01DB01119647
:10146000CD91DC911297D583C4836C817D81778384
:1014700066836C817D81DB0113965C934E9312979A
:101480005D834C83F386E286E70138813F5F3883D2
:10149000A091F401B091F501468956963C9143170D
:1014A00008F468CF21E066CF20E0E091F401F091EC
:1014B000F501E689D9E0ED9FF0011124E253FE4FDA
:1014C0008081823008F021E080918D0181110EC071
:1014D0000AC080918B0190918C01019690938C01B0
:1014E00080938B0197C0222309F494C080919402C9
:1014F000882321F081E080938D018CC010928D01B2
:10150000A091F401B091F501E091F401F091F501A1
:101510002D913C918789908D82179307A8F0809137
:10152000F4019091F5018091F4019091F501259AD3
:101530002D9A2FEF67EA71E6215060407040E1F785
:1015400000C000001D9AF5CF8091F20169E02FC024
:1015500081112CC0F894259A2D9A8FEF91EEA4E07A
:1015600081509040A040E1F700C000001D9ABFEFFD
:10157000C7EAD1E6B150C040D040E1F700C000005A
:101580001D9A2FEF61EE74E0215060407040E1F74A
:1015900000C000001D9A8FEF91EEA4E081509040B2
:1015A000A040E1F700C000001D9AD7CF8150482F1E
:1015B00050E0649F9001659F300D1124F901E253C2
:1015C000FE4F9081992321F2A181B28112960D9054
:1015D000BC91A02DB283A1832F523E4FA217B30717
:1015E00031F412962D913C9113973283218399E027
:1015F000949FF001959FF00D1124E253FE4F01805E
:10160000F281E02D268137813093F5012093F4019A
:101610008093F201A091F401B091F501CD91CDBF7D
:10162000DD91DEBFFF91EF91DF91CF91BF91AF913F
:101630009F918F917F916F915F914F913F912F91EA
:101640001F910F91FF90EF90DF90CF90BF90AF90E0
:101650009F908F907F906F905F904F903F902F90D2
:101660001F900F900FBE0F9008950FB6F8940F9231
:10167000FC01928D0F900FBE81E0911180E00895E2
:10168000EF92FF920F931F93CF93DF93EC010FB66E
:10169000F8940F921E8D7C0181E1E80EF11C01E0AF
:1016A00011165CF48989882341F0C7010E947E05E8
:1016B000811100938D011150F3CF8FEF8E8F0F901A
:1016C0000FBE0FB6F8940F921D8D7E0188E0E80ED4
:1016D000F11C01E011165CF48885882341F0C701F4
:1016E0000E947E05811100938D011150F3CF8FEF81
:1016F0008D8F0F900FBEDF91CF911F910F91FF90B3
:10170000EF9008950E940D091895CF93DF93FC0187
:10171000A085B1858281938124813581EC013D834F
:101720002C83C481D5819B838A8311968D919C9152
:101730001297E817F90721F41296DC93CE931197CC
:10174000118610868C9181508C938C91DF91CF9172
:1017500008950F920FB6F8940F921F9211242F92B2
:101760003F924F925F926F927F928F929F92AF9231
:10177000BF92CF92DF92EF92FF920F931F932F931E
:101780003F934F935F936F937F938F939F93AF9309
:10179000BF93CF93DF93EF93FF93A091F401B091A8
:1017A000F5010DB60D920EB60D928091940288232C
:1017B00021F081E080938D018CC010928D01A09169
:1017C000F401B091F501E091F401F091F5012D9152
:1017D0003C918789908D82179307A8F08091F4013E
:1017E0009091F5018091F4019091F501259A2D9A3F
:1017F0002FEF87EA91E6215080409040E1F700C04A
:1018000000001D9AF5CF8091F20169E02FC081118F
:101810002CC0F894259A2D9A2FEF81EE94E0215058
:1018200080409040E1F700C000001D9A2FEF87EA4A
:1018300091E6215080409040E1F700C000001D9AE1
:101840002FEF81EE94E0215080409040E1F700C0FE
:1018500000001D9A2FEF81EE94E0215080409040CF
:10186000E1F700C000001D9AD7CF8150482F50E00B
:10187000649F9001659F300D1124F901E253FE4FE2
:101880009081992321F2A181B28112960D90BC9191
:10189000A02DB283A1832F523E4FA217B30731F47C
:1018A00012962D913C9113973283218399E0949F56
:1018B000F001959FF00D1124E253FE4F0180F2815B
:1018C000E02D268137813093F5012093F401809338
:1018D000F201A091F401B091F501CD91CDBFDD9160
:1018E000DEBFFF91EF91DF91CF91BF91AF919F91BB
:1018F0008F917F916F915F914F913F912F911F91A8
:101900000F91FF90EF90DF90CF90BF90AF909F909E
:101910008F907F906F905F904F903F902F901F908F
:101920000F900FBE0F9008950F931F93CF93DF93E7
:101930008C01FB01808191818F3F2FEF920721F471
:10194000E801AF81B8850EC0D801139612962D918B
:101950003C911397E901488159818417950710F04C
:10196000D901F4CF12968D919C9113979383828322
:10197000EC01FD83EC83B583A4831396FC93EE9373
:10198000129711870087F80180818F5F8083DF9134
:10199000CF911F910F910895789484B5826084BD92
:1019A00084B5816084BD85B5826085BD85B5816063
:1019B00085BD80916E00816080936E0010928100E1
:1019C000809181008260809381008091810081609C
:1019D000809381008091800081608093800080915D
:1019E000B10084608093B1008091B00081608093E9
:1019F000B00080917A00846080937A0080917A00B0
:101A0000826080937A0080917A00816080937A006E
:101A100080917A00806880937A001092C1002091B2
:101A20000401309105018FEF98E0821B930B909396
:101A30000101809300010E94910108EA11E020E079
:101A400040EC50E067E771E083E691E00E94360FDA
:101A5000813009F0B8C00FB6F8940F928091AA01B6
:101A60009091AB01892B09F050C08DE991E00E9463
:101A70007A0484E991E00E947A048DE991E09093E0
:101A800091018093900184E991E090938F0180937C
:101A90008E0181E590E00E942307EC01009789F117
:101AA0004F96998388838AE08B8F85E08C8F0FB661
:101AB000F8940F92488159818B8D6C8D9A01869F85
:101AC000200D311D11243D832C831A8E5B834A83A4
:101AD00090E00197689F9001699F300D1124CA0121
:101AE000820F931F9F838E838FEF8D8F8E8FCE01FA
:101AF00008960E947A04CE0141960E947A040F90C3
:101B00000FBED093AB01C093AA010F900FBE80917E
:101B1000AA019091AB01892B69F006EA11E023E05C
:101B200045E550E06CE771E082E497E00E94360FF3
:101B3000811102C00E94D700813009F044C0F8949E
:101B40002FEF3FEF30939301209392018093F301A5
:101B50001092AD011092AC01A89590EC88E10FB6FF
:101B6000F894A895809360000FBE90936000A091B8
:101B7000F401B091F501CD91CDBFDD91DEBFFF91B4
:101B8000EF91DF91CF91BF91AF919F918F917F9115
:101B90006F915F914F913F912F911F910F91FF9006
:101BA000EF90DF90CF90BF90AF909F908F907F90FD
:101BB0006F905F904F903F902F901F900F900FBEAF
:101BC0000F90089503C08F3F09F4B4CF0E94910194
:101BD0000E94D702FDCFE7EFF1E01382128288EE78
:101BE00093E0A0E0B0E084839583A683B7838AE086
:101BF00091E09183808385EC90E09587848784ECE5
:101C000090E09787868780EC90E0918B808B81ECC9
:101C100090E0938B828B82EC90E0958B848B86ECAA
:101C200090E0978B868B118E128E138E148E0895F2
:101C3000AF92BF92DF92EF92FF920F931F93CF93D9
:101C4000DF9300D000D01F92CDB7DEB78C017B01AF
:101C50001D821C82009711F40E94D700672B21F48B
:101C6000FC01848D8111F8CF0E943405811104C0DC
:101C70008C819D81892B81F780E05801F8E0AF0EBF
:101C8000B11C0FB6F8940F92F801228D938D29178D
:101C900008F075C0D28C448D411147C0808191817C
:101CA000892B09F05AC0F80184819581009711F4BD
:101CB00080E037C0E090F401F090F501E816F906F5
:101CC00059F6F70182A1882339F2815082A326892F
:101CD00091A1291769F38111EBCF5701F2E0AF0E03
:101CE000B11CC5010E94850BF70181A1868B482F8D
:101CF00050E024E030E0241B350B35872487909199
:101D0000F201981710F48093F20129E0249FC0019A
:101D1000259F900D1124B50182539E4F0E945904B6
:101D200081E0F8011582148219C050E0B701F80172
:101D3000828193810E94C111F801248D8281938157
:101D4000820F911D938382832481358182179307AB
:101D500020F0808191819383828380E0D394F80185
:101D6000D28E9189992321F0C80141960E947E0567
:101D700081110E94A90B0F900FBE81E055C02C81EC
:101D80003D81232B19F40F900FBE4DC0811109C066
:101D90008091AE0189838091AC019091AD019B83CC
:101DA0008A830F900FBE0E940C070FB6F8940F9213
:101DB000F801858D8F3F09F4158EF801868D8F3FD0
:101DC00009F4168E0F900FBEBE016C5F7F4FCE01DF
:101DD00001960E944205811121C00FB6F8940F921E
:101DE000F801928D838D0F900FBE981311C06C81F6
:101DF0007D81C5010E94C205C8010E94400B0E945E
:101E0000D705882311F081E03CCF0E94A90BFBCFBE
:101E1000C8010E94400B0E94D705F5CFC8010E945F
:101E2000400B0E94D70580E00F900F900F900F900D
:101E30000F90DF91CF911F910F91FF90EF90DF9066
:101E4000BF90AF9008958091940281110E94D700B5
:101E50000E940C0760E08EE390E00E94D8040E948C
:101E6000D705811102C00E94A90B08957F928F921D
:101E70009F92AF92BF92CF92DF92EF92FF920F9319
:101E80001F93CF93DF93782EA92E6B017A01B22E88
:101E9000CA010E9423074C01892B09F4E8C088E29B
:101EA00090E00E942307EC01892BC1F0988E8F8A65
:101EB000A70165EA70E0C4010E94CA1121E0E21A9C
:101EC000F108EF89F88DEE0DFF1DC114D104D1F09A
:101ED000CE0149969601285F3F4F07C0C4010E947A
:101EE0001207C5C0C216D30659F0A601D6016D91DE
:101EF0006D01DC016D93CD01DA014C914111F2CFFE
:101F000018A201C0198E8B2D843008F083E08E8BCF
:101F100089A31AA21B861A861D8A1C8AD987C8879C
:101F200024E030E0A901481B51095D874C87DB8B19
:101F3000CA8B1BA21CA21DA21EA21FA27082DF01BF
:101F40001197AC9211971C92119780E88C9311977E
:101F50001C9257971C9211971C92B397F983E883B0
:101F60000115110519F0D801CD93DC930FB6F89443
:101F70000F928091F6018F5F8093F6018091F401BA
:101F80009091F501892BD1F5D093F501C093F4011F
:101F90008091F601813009F041C08EEC91E00E9401
:101FA0007A0487ED91E00E947A0480EE91E00E942D
:101FB0007A0489EE91E00E947A0487EA92E00E9416
:101FC0007A048EE992E00E947A0485EC91E00E9406
:101FD0007A048CEB91E00E947A0483EB91E00E94FA
:101FE0007A0487EA92E09093B2018093B1018EE97E
:101FF00092E09093B0018093AF0110C08091F30103
:1020000081110CC0E091F401F091F50196898E895F
:10201000891720F0D093F501C093F4018091B002AC
:102020008F5F8093B0028E899091F201981710F41F
:102030008093F201B9E08B9FC0011124BE016E5F55
:102040007F4F82539E4F0E9459040F900FBE809184
:10205000F301882351F0E091F401F091F5019689A4
:102060008E89981710F40E94A90B81E001C08FEFB0
:10207000DF91CF911F910F91FF90EF90DF90CF9064
:10208000BF90AF909F908F907F9008950F931F9374
:10209000CF93DF9300D000D01F92CDB7DEB700976B
:1020A00011F40E94D7000091AA011091AB01011513
:1020B000110571F019827B836A839D838C830E9452
:1020C0003405BE016F5F7F4FC8010E94180E01C02A
:1020D00080E00F900F900F900F900F90DF91CF91B5
:1020E0001F910F9108950F931F93CF93DF93823029
:1020F000910510F482E090E0E091B302F091B40217
:1021000020E030E0A0E0B0E0309719F1408151814B
:102110000281138148175907C8F08417950769F49D
:10212000109731F012960C93129713961C9327C0B8
:102130000093B3021093B40222C02115310519F0A7
:102140004217530718F49A01BD01EF01DF01F801AE
:10215000DBCF21153105F9F0281B390B243031056F
:1021600080F48A819B816115710521F0FB019383C5
:10217000828304C09093B4028093B302FE0132962E
:1021800044C0FE01E20FF31F819391932250310965
:10219000398328833AC02091B1023091B202232BB7
:1021A00041F420910201309103013093B202209357
:1021B000B10220910001309101012115310541F456
:1021C0002DB73EB74091040150910501241B350BFA
:1021D000E091B102F091B202E217F307A0F42E1BD6
:1021E0003F0B2817390778F0AC014E5F5F4F24177B
:1021F000350748F04E0F5F1F5093B2024093B10273
:102200008193919302C0E0E0F0E0CF01DF91CF91A4
:102210001F910F910895CF93DF93009709F481C028
:10222000FC01329713821282A091B302B091B402E2
:10223000109781F420813181820F931F2091B10288
:102240003091B2022817390751F5F093B202E093AA
:10225000B10267C0ED0120E030E0CE17DF0740F4A7
:102260004A815B819E0141155105F1F0EA01F5CFEC
:10227000D383C28340815181840F951FC817D9072A
:1022800059F488819981840F951F029691838083E8
:102290008A819B81938382832115310529F4F093F0
:1022A000B402E093B3023DC0E901FB83EA834991A4
:1022B0005991C40FD51FEC17FD0761F480819181FE
:1022C000840F951F0296E901998388838281938107
:1022D0009B838A83E0E0F0E012968D919C911397A6
:1022E000009719F0FD01DC01F7CF8D919C911197BA
:1022F0009D012E5F3F4F820F931F2091B1023091BD
:10230000B2022817390769F4309729F41092B40201
:102310001092B30202C013821282B093B202A09351
:10232000B102DF91CF910895A1E21A2EAA1BBB1B27
:10233000FD010DC0AA1FBB1FEE1FFF1FA217B30791
:10234000E407F50720F0A21BB30BE40BF50B661FA7
:10235000771F881F991F1A9469F76095709580956B
:1023600090959B01AC01BD01CF010895EE0FFF1FB9
:102370000590F491E02D099481E090E0F8940C949C
:10238000D111FB01DC0102C001900D92415050407F
:10239000D8F70895DC0101C06D9341505040E0F73B
:0623A0000895F894FFCF40
:1023A6000000B5022000000000006802D101FF0114
:1023B600B50230020E0222023D3D3D3D3D3D3D3D12
:1023C600205461736B7320737461747573203D3D83
:1023D6003D3D3D3D3D3D005469636B20636F756E29
:1023E600743A20005461736B20636F756E743A20E3
:1023F600002D205441534B200048696768205761DF
:102406007465726D61726B3A2000426C696E6B0086
:1024160053657269616C0049444C4500546D7220E5
:08242600537663000D0A00006B
:00000001FF
